{
  "contractName": "ERC721",
  "abi": [
    {
      "anonymous": false,
      "inputs": [
        {
          "indexed": true,
          "internalType": "address",
          "name": "_owner",
          "type": "address"
        },
        {
          "indexed": true,
          "internalType": "address",
          "name": "_approved",
          "type": "address"
        },
        {
          "indexed": true,
          "internalType": "uint256",
          "name": "_tokenId",
          "type": "uint256"
        }
      ],
      "name": "Approval",
      "type": "event"
    },
    {
      "anonymous": false,
      "inputs": [
        {
          "indexed": true,
          "internalType": "address",
          "name": "_from",
          "type": "address"
        },
        {
          "indexed": true,
          "internalType": "address",
          "name": "_to",
          "type": "address"
        },
        {
          "indexed": true,
          "internalType": "uint256",
          "name": "_tokenId",
          "type": "uint256"
        }
      ],
      "name": "Transfer",
      "type": "event"
    },
    {
      "inputs": [
        {
          "internalType": "bytes4",
          "name": "interfaceID",
          "type": "bytes4"
        }
      ],
      "name": "supportsInterface",
      "outputs": [
        {
          "internalType": "bool",
          "name": "",
          "type": "bool"
        }
      ],
      "stateMutability": "view",
      "type": "function"
    },
    {
      "inputs": [
        {
          "internalType": "address",
          "name": "_owner",
          "type": "address"
        }
      ],
      "name": "balanceOf",
      "outputs": [
        {
          "internalType": "uint256",
          "name": "",
          "type": "uint256"
        }
      ],
      "stateMutability": "view",
      "type": "function"
    },
    {
      "inputs": [
        {
          "internalType": "uint256",
          "name": "_tokenId",
          "type": "uint256"
        }
      ],
      "name": "ownerOf",
      "outputs": [
        {
          "internalType": "address",
          "name": "",
          "type": "address"
        }
      ],
      "stateMutability": "view",
      "type": "function"
    },
    {
      "inputs": [
        {
          "internalType": "address",
          "name": "_from",
          "type": "address"
        },
        {
          "internalType": "address",
          "name": "_to",
          "type": "address"
        },
        {
          "internalType": "uint256",
          "name": "_tokenId",
          "type": "uint256"
        }
      ],
      "name": "transferFrom",
      "outputs": [],
      "stateMutability": "nonpayable",
      "type": "function"
    }
  ],
  "bytecode": "0x608060405234801561001057600080fd5b506100407f01ffc9a7a5cef8baa21ed3c5c0d7e23accb804b619e9333b597f47a0d84076e261004560201b60201c565b6101bc565b63ffffffff60e01b817bffffffffffffffffffffffffffffffffffffffffffffffffffffffff1916036100ad576040517f08c379a00000000000000000000000000000000000000000000000000000000081526004016100a49061019c565b60405180910390fd5b6001600080837bffffffffffffffffffffffffffffffffffffffffffffffffffffffff19167bffffffffffffffffffffffffffffffffffffffffffffffffffffffff1916815260200190815260200160002060006101000a81548160ff02191690831515021790555050565b600082825260208201905092915050565b7f4552433136353a20496e76616c696420496e746572666163652072657175657360008201527f7400000000000000000000000000000000000000000000000000000000000000602082015250565b6000610186602183610119565b91506101918261012a565b604082019050919050565b600060208201905081810360008301526101b581610179565b9050919050565b610a0a806101cb6000396000f3fe608060405234801561001057600080fd5b506004361061004c5760003560e01c806301ffc9a71461005157806323b872dd146100815780636352211e1461009d57806370a08231146100cd575b600080fd5b61006b6004803603810190610066919061057e565b6100fd565b60405161007891906105c6565b60405180910390f35b61009b60048036038101906100969190610675565b610164565b005b6100b760048036038101906100b291906106c8565b610174565b6040516100c49190610704565b60405180910390f35b6100e760048036038101906100e2919061071f565b610225565b6040516100f4919061075b565b60405180910390f35b6000806000837bffffffffffffffffffffffffffffffffffffffffffffffffffffffff19167bffffffffffffffffffffffffffffffffffffffffffffffffffffffff1916815260200190815260200160002060009054906101000a900460ff169050919050565b61016f8383836102dc565b505050565b6000806001600084815260200190815260200160002060009054906101000a900473ffffffffffffffffffffffffffffffffffffffff169050600073ffffffffffffffffffffffffffffffffffffffff168173ffffffffffffffffffffffffffffffffffffffff160361021c576040517f08c379a0000000000000000000000000000000000000000000000000000000008152600401610213906107f9565b60405180910390fd5b80915050919050565b60008073ffffffffffffffffffffffffffffffffffffffff168273ffffffffffffffffffffffffffffffffffffffff1603610295576040517f08c379a000000000000000000000000000000000000000000000000000000000815260040161028c906107f9565b60405180910390fd5b600260008373ffffffffffffffffffffffffffffffffffffffff1673ffffffffffffffffffffffffffffffffffffffff168152602001908152602001600020549050919050565b600073ffffffffffffffffffffffffffffffffffffffff168273ffffffffffffffffffffffffffffffffffffffff160361034b576040517f08c379a00000000000000000000000000000000000000000000000000000000081526004016103429061088b565b60405180910390fd5b8273ffffffffffffffffffffffffffffffffffffffff1661036b82610174565b73ffffffffffffffffffffffffffffffffffffffff16146103c1576040517f08c379a00000000000000000000000000000000000000000000000000000000081526004016103b89061091d565b60405180910390fd5b6001600260008573ffffffffffffffffffffffffffffffffffffffff1673ffffffffffffffffffffffffffffffffffffffff1681526020019081526020016000206000828254610411919061096c565b925050819055506001600260008473ffffffffffffffffffffffffffffffffffffffff1673ffffffffffffffffffffffffffffffffffffffff168152602001908152602001600020600082825461046891906109a0565b92505081905550816001600083815260200190815260200160002060006101000a81548173ffffffffffffffffffffffffffffffffffffffff021916908373ffffffffffffffffffffffffffffffffffffffff160217905550808273ffffffffffffffffffffffffffffffffffffffff168473ffffffffffffffffffffffffffffffffffffffff167fddf252ad1be2c89b69c2b068fc378daa952ba7f163c4a11628f55a4df523b3ef60405160405180910390a4505050565b600080fd5b60007fffffffff0000000000000000000000000000000000000000000000000000000082169050919050565b61055b81610526565b811461056657600080fd5b50565b60008135905061057881610552565b92915050565b60006020828403121561059457610593610521565b5b60006105a284828501610569565b91505092915050565b60008115159050919050565b6105c0816105ab565b82525050565b60006020820190506105db60008301846105b7565b92915050565b600073ffffffffffffffffffffffffffffffffffffffff82169050919050565b600061060c826105e1565b9050919050565b61061c81610601565b811461062757600080fd5b50565b60008135905061063981610613565b92915050565b6000819050919050565b6106528161063f565b811461065d57600080fd5b50565b60008135905061066f81610649565b92915050565b60008060006060848603121561068e5761068d610521565b5b600061069c8682870161062a565b93505060206106ad8682870161062a565b92505060406106be86828701610660565b9150509250925092565b6000602082840312156106de576106dd610521565b5b60006106ec84828501610660565b91505092915050565b6106fe81610601565b82525050565b600060208201905061071960008301846106f5565b92915050565b60006020828403121561073557610734610521565b5b60006107438482850161062a565b91505092915050565b6107558161063f565b82525050565b6000602082019050610770600083018461074c565b92915050565b600082825260208201905092915050565b7f6f776e657220717565727920666f72206e6f6e2d6578697374656e7420746f6b60008201527f656e000000000000000000000000000000000000000000000000000000000000602082015250565b60006107e3602283610776565b91506107ee82610787565b604082019050919050565b60006020820190508181036000830152610812816107d6565b9050919050565b7f4572726f72202d20455243373231205472616e7366657220746f20746865207a60008201527f65726f2061646464726573000000000000000000000000000000000000000000602082015250565b6000610875602b83610776565b915061088082610819565b604082019050919050565b600060208201905081810360008301526108a481610868565b9050919050565b7f547279696e6720746f207472616e73666572206120746f6b656e20746865206160008201527f6464726573732064656f73206e6f74206f776e21000000000000000000000000602082015250565b6000610907603483610776565b9150610912826108ab565b604082019050919050565b60006020820190508181036000830152610936816108fa565b9050919050565b7f4e487b7100000000000000000000000000000000000000000000000000000000600052601160045260246000fd5b60006109778261063f565b91506109828361063f565b925082820390508181111561099a5761099961093d565b5b92915050565b60006109ab8261063f565b91506109b68361063f565b92508282019050808211156109ce576109cd61093d565b5b9291505056fea2646970667358221220a0aef15ecee5075c7230c5d114319fee9a60871728f0e848f289013da237d69964736f6c63430008110033",
  "immutableReferences": {},
  "source": "// SPDX-License-Identifier: MIT\npragma solidity ^0.8.0;\n\nimport './ERC165.sol';\nimport './interfaces/IERC721.sol';\n\ncontract ERC721 is ERC165, IERC721 {\n\n  //Mapping from the token Id to the owner\n  mapping(uint256 => address) private _tokenOwner;\n\n  //Mapping from onwer to the number of owned tokens\n  mapping(address => uint256) private _OwnedTokenCount;\n\n  //Mapping from token id to aprove addresses \n  mapping(uint256 => address) private  _tokenApprovals;\n\n\n\n    /// @notice Count all NFTs assigned to an owner\n    /// @dev NFTs assigned to the zero address are considered invalid, and this\n    ///  function throws for queries about the zero address.\n    /// @param _owner An address for whom to query the balance\n    /// @return The number of NFTs owned by `_owner`, possibly zero\n  function balanceOf(address _owner) public override view returns(uint256){\n    require(_owner != address(0), 'owner query for non-existent token');\n    return _OwnedTokenCount[_owner];\n  }\n    /// @notice Find the owner of an NFT\n    /// @dev NFTs assigned to zero address are considered invalid, and queries\n    ///  about them do throw.\n    /// @param _tokenId The identifier for an NFT\n    /// @return The address of the owner of the NFT\n  function ownerOf(uint256 _tokenId) public override view returns(address){\n    address owner = _tokenOwner[_tokenId];\n    require(owner != address(0), 'owner query for non-existent token');\n    return owner;\n  }\n\n  function _exist(uint256 tokenId) internal view returns(bool){\n    // setting the address of nft owner to check the mapping\n    // of the address from tokenOwner at the tokenId \n    address owner = _tokenOwner[tokenId];\n    // return truthiness that the address is not zero \n    return owner != address(0);\n  }\n\n  function _mint(address to, uint256 tokenId) internal virtual {\n    // requires that the addres isn't zero\n    require(to != address(0), 'ERC721: minting to the zero address');\n    // requires thay the token doesn not already exist\n    require(!_exist(tokenId), 'ERC721: token already minted');\n    // we are addding a new address with a token Id for minting \n    _tokenOwner[tokenId] = to;\n    // keeping track of each address that is minting and adding one  \n    _OwnedTokenCount[to] += 1;\n\n    emit Transfer(address(0), to, tokenId);\n  }\n\n    /// @notice Transfer ownership of an NFT \n    /// @dev Throws unless `msg.sender` is the current owner, an authorized\n    ///  operator, or the approved address for this NFT. Throws if `_from` is\n    ///  not the current owner. Throws if `_to` is the zero address. Throws if\n    ///  `_tokenId` is not a valid NFT.\n    /// @param _from The current owner of the NFT\n    /// @param _to The new owner\n    /// @param _tokenId The NFT to transfer\n    function _transferFrom(address _from, address _to, uint256 _tokenId) internal {\n      require(_to != address(0), 'Error - ERC721 Transfer to the zero adddres');\n      require(ownerOf(_tokenId) == _from, 'Trying to transfer a token the address deos not own!');\n      _OwnedTokenCount[_from] -= 1;\n      _OwnedTokenCount[_to] += 1;\n      _tokenOwner[_tokenId] = _to;\n\n      emit Transfer(_from, _to, _tokenId);\n    }\n\n    function transferFrom(address _from, address _to, uint256 _tokenId) override public {\n      _transferFrom(_from, _to, _tokenId);\n\n    }\n\n}",
  "sourcePath": "/Users/iovannyarroyo/sei/UdemyProjects/nft-marketplace-starter-kit/src/contracts/ERC721.sol",
  "compiler": {
    "name": "solc",
    "version": "0.8.17+commit.8df45f5f.Emscripten.clang"
  },
  "schemaVersion": "3.4.11",
  "updatedAt": "2022-12-19T04:25:45.751Z",
  "devdoc": {
    "kind": "dev",
    "methods": {
      "balanceOf(address)": {
        "details": "NFTs assigned to the zero address are considered invalid, and this  function throws for queries about the zero address.",
        "params": {
          "_owner": "An address for whom to query the balance"
        },
        "returns": {
          "_0": "The number of NFTs owned by `_owner`, possibly zero"
        }
      },
      "ownerOf(uint256)": {
        "details": "NFTs assigned to zero address are considered invalid, and queries  about them do throw.",
        "params": {
          "_tokenId": "The identifier for an NFT"
        },
        "returns": {
          "_0": "The address of the owner of the NFT"
        }
      },
      "supportsInterface(bytes4)": {
        "details": "Interface identification is specified in ERC-165. This function  uses less than 30,000 gas.",
        "params": {
          "interfaceID": "The interface identifier, as specified in ERC-165"
        },
        "returns": {
          "_0": "`true` if the contract implements `interfaceID` and  `interfaceID` is not 0xffffffff, `false` otherwise"
        }
      },
      "transferFrom(address,address,uint256)": {
        "details": "Throws unless `msg.sender` is the current owner, an authorized  operator, or the approved address for this NFT. Throws if `_from` is  not the current owner. Throws if `_to` is the zero address. Throws if  `_tokenId` is not a valid NFT.",
        "params": {
          "_from": "The current owner of the NFT",
          "_to": "The new owner",
          "_tokenId": "The NFT to transfer"
        }
      }
    },
    "version": 1
  },
  "userdoc": {
    "kind": "user",
    "methods": {
      "balanceOf(address)": {
        "notice": "Count all NFTs assigned to an owner"
      },
      "ownerOf(uint256)": {
        "notice": "Find the owner of an NFT"
      },
      "supportsInterface(bytes4)": {
        "notice": "Query if a contract implements an interface"
      },
      "transferFrom(address,address,uint256)": {
        "notice": "Transfer ownership of an NFT -- THE CALLER IS RESPONSIBLE  TO CONFIRM THAT `_to` IS CAPABLE OF RECEIVING NFTS OR ELSE  THEY MAY BE PERMANENTLY LOST"
      }
    },
    "version": 1
  }
}