{
  "contractName": "ERC721Enumerable",
  "abi": [
    {
      "anonymous": false,
      "inputs": [
        {
          "indexed": true,
          "internalType": "address",
          "name": "_owner",
          "type": "address"
        },
        {
          "indexed": true,
          "internalType": "address",
          "name": "_approved",
          "type": "address"
        },
        {
          "indexed": true,
          "internalType": "uint256",
          "name": "_tokenId",
          "type": "uint256"
        }
      ],
      "name": "Approval",
      "type": "event"
    },
    {
      "anonymous": false,
      "inputs": [
        {
          "indexed": true,
          "internalType": "address",
          "name": "_from",
          "type": "address"
        },
        {
          "indexed": true,
          "internalType": "address",
          "name": "_to",
          "type": "address"
        },
        {
          "indexed": true,
          "internalType": "uint256",
          "name": "_tokenId",
          "type": "uint256"
        }
      ],
      "name": "Transfer",
      "type": "event"
    },
    {
      "inputs": [
        {
          "internalType": "address",
          "name": "_owner",
          "type": "address"
        }
      ],
      "name": "balanceOf",
      "outputs": [
        {
          "internalType": "uint256",
          "name": "",
          "type": "uint256"
        }
      ],
      "stateMutability": "view",
      "type": "function"
    },
    {
      "inputs": [
        {
          "internalType": "uint256",
          "name": "_tokenId",
          "type": "uint256"
        }
      ],
      "name": "ownerOf",
      "outputs": [
        {
          "internalType": "address",
          "name": "",
          "type": "address"
        }
      ],
      "stateMutability": "view",
      "type": "function"
    },
    {
      "inputs": [
        {
          "internalType": "bytes4",
          "name": "interfaceID",
          "type": "bytes4"
        }
      ],
      "name": "supportsInterface",
      "outputs": [
        {
          "internalType": "bool",
          "name": "",
          "type": "bool"
        }
      ],
      "stateMutability": "view",
      "type": "function"
    },
    {
      "inputs": [
        {
          "internalType": "address",
          "name": "_from",
          "type": "address"
        },
        {
          "internalType": "address",
          "name": "_to",
          "type": "address"
        },
        {
          "internalType": "uint256",
          "name": "_tokenId",
          "type": "uint256"
        }
      ],
      "name": "transferFrom",
      "outputs": [],
      "stateMutability": "nonpayable",
      "type": "function"
    },
    {
      "inputs": [
        {
          "internalType": "uint256",
          "name": "index",
          "type": "uint256"
        }
      ],
      "name": "tokenByIndex",
      "outputs": [
        {
          "internalType": "uint256",
          "name": "",
          "type": "uint256"
        }
      ],
      "stateMutability": "view",
      "type": "function"
    },
    {
      "inputs": [
        {
          "internalType": "address",
          "name": "owner",
          "type": "address"
        },
        {
          "internalType": "uint256",
          "name": "index",
          "type": "uint256"
        }
      ],
      "name": "tokenOfOwnedByIndex",
      "outputs": [
        {
          "internalType": "uint256",
          "name": "",
          "type": "uint256"
        }
      ],
      "stateMutability": "view",
      "type": "function"
    },
    {
      "inputs": [],
      "name": "totalSupply",
      "outputs": [
        {
          "internalType": "uint256",
          "name": "",
          "type": "uint256"
        }
      ],
      "stateMutability": "view",
      "type": "function"
    }
  ],
  "bytecode": "0x608060405234801561001057600080fd5b506100407f01ffc9a7a5cef8baa21ed3c5c0d7e23accb804b619e9333b597f47a0d84076e261004560201b60201c565b6101bc565b63ffffffff60e01b817bffffffffffffffffffffffffffffffffffffffffffffffffffffffff1916036100ad576040517f08c379a00000000000000000000000000000000000000000000000000000000081526004016100a49061019c565b60405180910390fd5b6001600080837bffffffffffffffffffffffffffffffffffffffffffffffffffffffff19167bffffffffffffffffffffffffffffffffffffffffffffffffffffffff1916815260200190815260200160002060006101000a81548160ff02191690831515021790555050565b600082825260208201905092915050565b7f4552433136353a20496e76616c696420496e746572666163652072657175657360008201527f7400000000000000000000000000000000000000000000000000000000000000602082015250565b6000610186602183610119565b91506101918261012a565b604082019050919050565b600060208201905081810360008301526101b581610179565b9050919050565b610d2e806101cb6000396000f3fe608060405234801561001057600080fd5b506004361061007d5760003560e01c80634f6ccce71161005b5780634f6ccce7146100ec5780636352211e1461011c57806370a082311461014c578063fc3995091461017c5761007d565b806301ffc9a71461008257806318160ddd146100b257806323b872dd146100d0575b600080fd5b61009c6004803603810190610097919061075b565b6101ac565b6040516100a991906107a3565b60405180910390f35b6100ba610213565b6040516100c791906107d7565b60405180910390f35b6100ea60048036038101906100e5919061087c565b610220565b005b610106600480360381019061010191906108cf565b610230565b60405161011391906107d7565b60405180910390f35b610136600480360381019061013191906108cf565b6102a1565b604051610143919061090b565b60405180910390f35b61016660048036038101906101619190610926565b610352565b60405161017391906107d7565b60405180910390f35b61019660048036038101906101919190610953565b610409565b6040516101a391906107d7565b60405180910390f35b6000806000837bffffffffffffffffffffffffffffffffffffffffffffffffffffffff19167bffffffffffffffffffffffffffffffffffffffffffffffffffffffff1916815260200190815260200160002060009054906101000a900460ff169050919050565b6000600480549050905090565b61022b8383836104b9565b505050565b600061023a610213565b821061027b576040517f08c379a0000000000000000000000000000000000000000000000000000000008152600401610272906109f0565b60405180910390fd5b6004828154811061028f5761028e610a10565b5b90600052602060002001549050919050565b6000806001600084815260200190815260200160002060009054906101000a900473ffffffffffffffffffffffffffffffffffffffff169050600073ffffffffffffffffffffffffffffffffffffffff168173ffffffffffffffffffffffffffffffffffffffff1603610349576040517f08c379a000000000000000000000000000000000000000000000000000000000815260040161034090610ab1565b60405180910390fd5b80915050919050565b60008073ffffffffffffffffffffffffffffffffffffffff168273ffffffffffffffffffffffffffffffffffffffff16036103c2576040517f08c379a00000000000000000000000000000000000000000000000000000000081526004016103b990610ab1565b60405180910390fd5b600260008373ffffffffffffffffffffffffffffffffffffffff1673ffffffffffffffffffffffffffffffffffffffff168152602001908152602001600020549050919050565b600061041483610352565b8210610455576040517f08c379a000000000000000000000000000000000000000000000000000000000815260040161044c90610b1d565b60405180910390fd5b600660008473ffffffffffffffffffffffffffffffffffffffff1673ffffffffffffffffffffffffffffffffffffffff16815260200190815260200160002082815481106104a6576104a5610a10565b5b9060005260206000200154905092915050565b600073ffffffffffffffffffffffffffffffffffffffff168273ffffffffffffffffffffffffffffffffffffffff1603610528576040517f08c379a000000000000000000000000000000000000000000000000000000000815260040161051f90610baf565b60405180910390fd5b8273ffffffffffffffffffffffffffffffffffffffff16610548826102a1565b73ffffffffffffffffffffffffffffffffffffffff161461059e576040517f08c379a000000000000000000000000000000000000000000000000000000000815260040161059590610c41565b60405180910390fd5b6001600260008573ffffffffffffffffffffffffffffffffffffffff1673ffffffffffffffffffffffffffffffffffffffff16815260200190815260200160002060008282546105ee9190610c90565b925050819055506001600260008473ffffffffffffffffffffffffffffffffffffffff1673ffffffffffffffffffffffffffffffffffffffff16815260200190815260200160002060008282546106459190610cc4565b92505081905550816001600083815260200190815260200160002060006101000a81548173ffffffffffffffffffffffffffffffffffffffff021916908373ffffffffffffffffffffffffffffffffffffffff160217905550808273ffffffffffffffffffffffffffffffffffffffff168473ffffffffffffffffffffffffffffffffffffffff167fddf252ad1be2c89b69c2b068fc378daa952ba7f163c4a11628f55a4df523b3ef60405160405180910390a4505050565b600080fd5b60007fffffffff0000000000000000000000000000000000000000000000000000000082169050919050565b61073881610703565b811461074357600080fd5b50565b6000813590506107558161072f565b92915050565b600060208284031215610771576107706106fe565b5b600061077f84828501610746565b91505092915050565b60008115159050919050565b61079d81610788565b82525050565b60006020820190506107b86000830184610794565b92915050565b6000819050919050565b6107d1816107be565b82525050565b60006020820190506107ec60008301846107c8565b92915050565b600073ffffffffffffffffffffffffffffffffffffffff82169050919050565b600061081d826107f2565b9050919050565b61082d81610812565b811461083857600080fd5b50565b60008135905061084a81610824565b92915050565b610859816107be565b811461086457600080fd5b50565b60008135905061087681610850565b92915050565b600080600060608486031215610895576108946106fe565b5b60006108a38682870161083b565b93505060206108b48682870161083b565b92505060406108c586828701610867565b9150509250925092565b6000602082840312156108e5576108e46106fe565b5b60006108f384828501610867565b91505092915050565b61090581610812565b82525050565b600060208201905061092060008301846108fc565b92915050565b60006020828403121561093c5761093b6106fe565b5b600061094a8482850161083b565b91505092915050565b6000806040838503121561096a576109696106fe565b5b60006109788582860161083b565b925050602061098985828601610867565b9150509250929050565b600082825260208201905092915050565b7f676c6f62616c20696e646578206973206f7574206f6620626f756e6473212000600082015250565b60006109da601f83610993565b91506109e5826109a4565b602082019050919050565b60006020820190508181036000830152610a09816109cd565b9050919050565b7f4e487b7100000000000000000000000000000000000000000000000000000000600052603260045260246000fd5b7f6f776e657220717565727920666f72206e6f6e2d6578697374656e7420746f6b60008201527f656e000000000000000000000000000000000000000000000000000000000000602082015250565b6000610a9b602283610993565b9150610aa682610a3f565b604082019050919050565b60006020820190508181036000830152610aca81610a8e565b9050919050565b7f6f776e657220696e646578206f7574206f6620626f756e647321000000000000600082015250565b6000610b07601a83610993565b9150610b1282610ad1565b602082019050919050565b60006020820190508181036000830152610b3681610afa565b9050919050565b7f4572726f72202d20455243373231205472616e7366657220746f20746865207a60008201527f65726f2061646464726573000000000000000000000000000000000000000000602082015250565b6000610b99602b83610993565b9150610ba482610b3d565b604082019050919050565b60006020820190508181036000830152610bc881610b8c565b9050919050565b7f547279696e6720746f207472616e73666572206120746f6b656e20746865206160008201527f6464726573732064656f73206e6f74206f776e21000000000000000000000000602082015250565b6000610c2b603483610993565b9150610c3682610bcf565b604082019050919050565b60006020820190508181036000830152610c5a81610c1e565b9050919050565b7f4e487b7100000000000000000000000000000000000000000000000000000000600052601160045260246000fd5b6000610c9b826107be565b9150610ca6836107be565b9250828203905081811115610cbe57610cbd610c61565b5b92915050565b6000610ccf826107be565b9150610cda836107be565b9250828201905080821115610cf257610cf1610c61565b5b9291505056fea26469706673582212205a29914b2cf040e58f977c1d0e9726bbdfe9a5ace4f9a2a7a93f07ed1241500564736f6c63430008110033",
  "immutableReferences": {},
  "source": "// SPDX-License-Identifier: MIT\npragma solidity ^0.8.0;\n\nimport './ERC721.sol';\n\ncontract ERC721Enumerable is ERC721 {\n\n    uint256[] private _allTokens;\n\n    // mapping from tokenId to position in _allTokens array\n    mapping(uint256 => uint256) private _allTokensIndex;  \n    \n    // mapping of owner to list of all owner tokens ids\n    mapping(address => uint256[]) private _ownedTokens;\n\n    //mapping from token ID index of the owner token list\n    mapping(uint256 => uint256) private _ownedTokenIndex;\n\n\n    \n\n    function _mint(address to, uint256 tokenId) internal override(ERC721) {\n      super._mint(to, tokenId);\n      //add tokens to the owners\n      //add tokens to the total supply- to allTokens.\n      _addTokensToAllTokenEnumeration(tokenId);\n      _addTokensToOwnerEnumration(to, tokenId);\n    }\n    // add tokens to the _allTokens array and set the position of the tokens \n    function _addTokensToAllTokenEnumeration(uint256 tokenId) private {\n      _allTokensIndex[tokenId] = _allTokens.length;\n      _allTokens.push(tokenId);\n    }\n\n\n    function _addTokensToOwnerEnumration(address to, uint256 tokenId) private {\n      // add address and tokenId to the _ownenToken \n      // _ownedTokenIndex  tokenId set to address of ownedTokens position\n      // we want to execute thsi fucntion with minting \n      _ownedTokenIndex[tokenId] = _ownedTokens[to].length;\n      _ownedTokens[to].push(tokenId);\n    }\n\n    function tokenByIndex(uint256 index) public view returns(uint256){\n      require(index < totalSupply(), 'global index is out of bounds! ');\n      return _allTokens[index];\n    }\n\n    function tokenOfOwnedByIndex(address owner, uint256 index) public view returns(uint256){\n      require(index < balanceOf(owner), 'owner index out of bounds!');\n      return _ownedTokens[owner][index];\n    }\n    // Return the total supply of the _allToken array \n    function totalSupply() public view returns(uint256){\n      return _allTokens.length;\n    }\n\n}",
  "sourcePath": "/Users/iovannyarroyo/sei/UdemyProjects/nft-marketplace-starter-kit/src/contracts/ERC721Enumerable.sol",
  "compiler": {
    "name": "solc",
    "version": "0.8.17+commit.8df45f5f.Emscripten.clang"
  },
  "schemaVersion": "3.4.11",
  "updatedAt": "2022-12-19T04:25:45.759Z",
  "devdoc": {
    "kind": "dev",
    "methods": {
      "balanceOf(address)": {
        "details": "NFTs assigned to the zero address are considered invalid, and this  function throws for queries about the zero address.",
        "params": {
          "_owner": "An address for whom to query the balance"
        },
        "returns": {
          "_0": "The number of NFTs owned by `_owner`, possibly zero"
        }
      },
      "ownerOf(uint256)": {
        "details": "NFTs assigned to zero address are considered invalid, and queries  about them do throw.",
        "params": {
          "_tokenId": "The identifier for an NFT"
        },
        "returns": {
          "_0": "The address of the owner of the NFT"
        }
      },
      "supportsInterface(bytes4)": {
        "details": "Interface identification is specified in ERC-165. This function  uses less than 30,000 gas.",
        "params": {
          "interfaceID": "The interface identifier, as specified in ERC-165"
        },
        "returns": {
          "_0": "`true` if the contract implements `interfaceID` and  `interfaceID` is not 0xffffffff, `false` otherwise"
        }
      },
      "transferFrom(address,address,uint256)": {
        "details": "Throws unless `msg.sender` is the current owner, an authorized  operator, or the approved address for this NFT. Throws if `_from` is  not the current owner. Throws if `_to` is the zero address. Throws if  `_tokenId` is not a valid NFT.",
        "params": {
          "_from": "The current owner of the NFT",
          "_to": "The new owner",
          "_tokenId": "The NFT to transfer"
        }
      }
    },
    "version": 1
  },
  "userdoc": {
    "kind": "user",
    "methods": {
      "balanceOf(address)": {
        "notice": "Count all NFTs assigned to an owner"
      },
      "ownerOf(uint256)": {
        "notice": "Find the owner of an NFT"
      },
      "supportsInterface(bytes4)": {
        "notice": "Query if a contract implements an interface"
      },
      "transferFrom(address,address,uint256)": {
        "notice": "Transfer ownership of an NFT -- THE CALLER IS RESPONSIBLE  TO CONFIRM THAT `_to` IS CAPABLE OF RECEIVING NFTS OR ELSE  THEY MAY BE PERMANENTLY LOST"
      }
    },
    "version": 1
  }
}